{
  "contractName": "PatientRecords",
  "abi": [
    {
      "constant": true,
      "inputs": [
        {
          "internalType": "uint256",
          "name": "",
          "type": "uint256"
        }
      ],
      "name": "patients",
      "outputs": [
        {
          "internalType": "address",
          "name": "account_address",
          "type": "address"
        },
        {
          "internalType": "string",
          "name": "username",
          "type": "string"
        },
        {
          "internalType": "string",
          "name": "name",
          "type": "string"
        },
        {
          "internalType": "string",
          "name": "gender",
          "type": "string"
        },
        {
          "internalType": "uint256",
          "name": "dateOfBirth",
          "type": "uint256"
        },
        {
          "internalType": "uint256",
          "name": "created_at",
          "type": "uint256"
        }
      ],
      "payable": false,
      "stateMutability": "view",
      "type": "function"
    },
    {
      "constant": true,
      "inputs": [
        {
          "internalType": "uint256",
          "name": "",
          "type": "uint256"
        }
      ],
      "name": "records",
      "outputs": [
        {
          "internalType": "uint256",
          "name": "id",
          "type": "uint256"
        },
        {
          "internalType": "address",
          "name": "user_address",
          "type": "address"
        },
        {
          "internalType": "string",
          "name": "title",
          "type": "string"
        },
        {
          "internalType": "uint256",
          "name": "date",
          "type": "uint256"
        },
        {
          "internalType": "string",
          "name": "filename",
          "type": "string"
        },
        {
          "internalType": "string",
          "name": "file",
          "type": "string"
        },
        {
          "internalType": "uint256",
          "name": "created_at",
          "type": "uint256"
        }
      ],
      "payable": false,
      "stateMutability": "view",
      "type": "function"
    },
    {
      "constant": false,
      "inputs": [
        {
          "internalType": "address",
          "name": "_account_address",
          "type": "address"
        },
        {
          "internalType": "string",
          "name": "_username",
          "type": "string"
        },
        {
          "internalType": "string",
          "name": "_name",
          "type": "string"
        },
        {
          "internalType": "string",
          "name": "_gender",
          "type": "string"
        },
        {
          "internalType": "uint256",
          "name": "_dateOfBirth",
          "type": "uint256"
        },
        {
          "internalType": "uint256",
          "name": "_created_at",
          "type": "uint256"
        }
      ],
      "name": "addPatient",
      "outputs": [],
      "payable": false,
      "stateMutability": "nonpayable",
      "type": "function"
    },
    {
      "constant": false,
      "inputs": [
        {
          "internalType": "uint256",
          "name": "_id",
          "type": "uint256"
        },
        {
          "internalType": "address",
          "name": "_user_address",
          "type": "address"
        },
        {
          "internalType": "string",
          "name": "_title",
          "type": "string"
        },
        {
          "internalType": "uint256",
          "name": "_date",
          "type": "uint256"
        },
        {
          "internalType": "string",
          "name": "_filename",
          "type": "string"
        },
        {
          "internalType": "string",
          "name": "_file",
          "type": "string"
        },
        {
          "internalType": "uint256",
          "name": "_created_at",
          "type": "uint256"
        }
      ],
      "name": "addRecord",
      "outputs": [],
      "payable": false,
      "stateMutability": "nonpayable",
      "type": "function"
    },
    {
      "constant": true,
      "inputs": [],
      "name": "getCount",
      "outputs": [
        {
          "internalType": "uint256",
          "name": "count",
          "type": "uint256"
        }
      ],
      "payable": false,
      "stateMutability": "view",
      "type": "function"
    },
    {
      "constant": true,
      "inputs": [
        {
          "internalType": "address",
          "name": "user_address",
          "type": "address"
        }
      ],
      "name": "getAllRecordsForAddress",
      "outputs": [
        {
          "components": [
            {
              "internalType": "uint256",
              "name": "id",
              "type": "uint256"
            },
            {
              "internalType": "address",
              "name": "user_address",
              "type": "address"
            },
            {
              "internalType": "string",
              "name": "title",
              "type": "string"
            },
            {
              "internalType": "uint256",
              "name": "date",
              "type": "uint256"
            },
            {
              "internalType": "string",
              "name": "filename",
              "type": "string"
            },
            {
              "internalType": "string",
              "name": "file",
              "type": "string"
            },
            {
              "internalType": "uint256",
              "name": "created_at",
              "type": "uint256"
            }
          ],
          "internalType": "struct PatientRecords.Record[]",
          "name": "",
          "type": "tuple[]"
        }
      ],
      "payable": false,
      "stateMutability": "view",
      "type": "function"
    }
  ],
  "bytecode": "0x608060405234801561001057600080fd5b506114b4806100206000396000f3fe608060405234801561001057600080fd5b50600436106100625760003560e01c806329f883f01461006757806334461067146100835780635bebc2ea146100b957806393119a83146100d5578063a87d942c1461010a578063c7ceace114610128575b600080fd5b610081600480360361007c9190810190610ef7565b610158565b005b61009d60048036036100989190810190610ece565b610296565b6040516100b09796959493929190611271565b60405180910390f35b6100d360048036036100ce9190810190610dfd565b6104cd565b005b6100ef60048036036100ea9190810190610ece565b6105fa565b604051610101969594939291906111be565b60405180910390f35b61011261082b565b60405161011f9190611256565b60405180910390f35b610142600480360361013d9190810190610dd4565b610838565b60405161014f9190611234565b60405180910390f35b60016040518060e001604052808981526020018873ffffffffffffffffffffffffffffffffffffffff16815260200187815260200186815260200185815260200184815260200183815250908060018154018082558091505090600182039060005260206000209060070201600090919290919091506000820151816000015560208201518160010160006101000a81548173ffffffffffffffffffffffffffffffffffffffff021916908373ffffffffffffffffffffffffffffffffffffffff160217905550604082015181600201908051906020019061023b929190610c5e565b50606082015181600301556080820151816004019080519060200190610262929190610c5e565b5060a082015181600501908051906020019061027f929190610c5e565b5060c0820151816006015550505050505050505050565b600181815481106102a357fe5b90600052602060002090600702016000915090508060000154908060010160009054906101000a900473ffffffffffffffffffffffffffffffffffffffff1690806002018054600181600116156101000203166002900480601f01602080910402602001604051908101604052809291908181526020018280546001816001161561010002031660029004801561037b5780601f106103505761010080835404028352916020019161037b565b820191906000526020600020905b81548152906001019060200180831161035e57829003601f168201915b505050505090806003015490806004018054600181600116156101000203166002900480601f01602080910402602001604051908101604052809291908181526020018280546001816001161561010002031660029004801561041f5780601f106103f45761010080835404028352916020019161041f565b820191906000526020600020905b81548152906001019060200180831161040257829003601f168201915b505050505090806005018054600181600116156101000203166002900480601f0160208091040260200160405190810160405280929190818152602001828054600181600116156101000203166002900480156104bd5780601f10610492576101008083540402835291602001916104bd565b820191906000526020600020905b8154815290600101906020018083116104a057829003601f168201915b5050505050908060060154905087565b60006040518060c001604052808873ffffffffffffffffffffffffffffffffffffffff168152602001878152602001868152602001858152602001848152602001838152509080600181540180825580915050906001820390600052602060002090600602016000909192909190915060008201518160000160006101000a81548173ffffffffffffffffffffffffffffffffffffffff021916908373ffffffffffffffffffffffffffffffffffffffff16021790555060208201518160010190805190602001906105a0929190610c5e565b5060408201518160020190805190602001906105bd929190610c5e565b5060608201518160030190805190602001906105da929190610c5e565b506080820151816004015560a08201518160050155505050505050505050565b6000818154811061060757fe5b90600052602060002090600602016000915090508060000160009054906101000a900473ffffffffffffffffffffffffffffffffffffffff1690806001018054600181600116156101000203166002900480601f0160208091040260200160405190810160405280929190818152602001828054600181600116156101000203166002900480156106d95780601f106106ae576101008083540402835291602001916106d9565b820191906000526020600020905b8154815290600101906020018083116106bc57829003601f168201915b505050505090806002018054600181600116156101000203166002900480601f0160208091040260200160405190810160405280929190818152602001828054600181600116156101000203166002900480156107775780601f1061074c57610100808354040283529160200191610777565b820191906000526020600020905b81548152906001019060200180831161075a57829003601f168201915b505050505090806003018054600181600116156101000203166002900480601f0160208091040260200160405190810160405280929190818152602001828054600181600116156101000203166002900480156108155780601f106107ea57610100808354040283529160200191610815565b820191906000526020600020905b8154815290600101906020018083116107f857829003601f168201915b5050505050908060040154908060050154905086565b6000600180549050905090565b606060008060009050600091505b61084e61082b565b8210156108dd578373ffffffffffffffffffffffffffffffffffffffff166001838154811061087957fe5b906000526020600020906007020160010160009054906101000a900473ffffffffffffffffffffffffffffffffffffffff1673ffffffffffffffffffffffffffffffffffffffff1614156108d05780806001019150505b8180600101925050610846565b60608160405190808252806020026020018201604052801561091957816020015b610906610cde565b8152602001906001900390816108fe5790505b50905060009150600092505b61092d61082b565b831015610c53578473ffffffffffffffffffffffffffffffffffffffff166001848154811061095857fe5b906000526020600020906007020160010160009054906101000a900473ffffffffffffffffffffffffffffffffffffffff1673ffffffffffffffffffffffffffffffffffffffff161415610c4657600183815481106109b357fe5b90600052602060002090600702016040518060e0016040529081600082015481526020016001820160009054906101000a900473ffffffffffffffffffffffffffffffffffffffff1673ffffffffffffffffffffffffffffffffffffffff1673ffffffffffffffffffffffffffffffffffffffff168152602001600282018054600181600116156101000203166002900480601f016020809104026020016040519081016040528092919081815260200182805460018160011615610100020316600290048015610ac55780601f10610a9a57610100808354040283529160200191610ac5565b820191906000526020600020905b815481529060010190602001808311610aa857829003601f168201915b5050505050815260200160038201548152602001600482018054600181600116156101000203166002900480601f016020809104026020016040519081016040528092919081815260200182805460018160011615610100020316600290048015610b715780601f10610b4657610100808354040283529160200191610b71565b820191906000526020600020905b815481529060010190602001808311610b5457829003601f168201915b50505050508152602001600582018054600181600116156101000203166002900480601f016020809104026020016040519081016040528092919081815260200182805460018160011615610100020316600290048015610c135780601f10610be857610100808354040283529160200191610c13565b820191906000526020600020905b815481529060010190602001808311610bf657829003601f168201915b50505050508152602001600682015481525050818381518110610c3257fe5b602002602001018190525081806001019250505b8280600101935050610925565b809350505050919050565b828054600181600116156101000203166002900490600052602060002090601f016020900481019282601f10610c9f57805160ff1916838001178555610ccd565b82800160010185558215610ccd579182015b82811115610ccc578251825591602001919060010190610cb1565b5b509050610cda9190610d31565b5090565b6040518060e0016040528060008152602001600073ffffffffffffffffffffffffffffffffffffffff16815260200160608152602001600081526020016060815260200160608152602001600081525090565b610d5391905b80821115610d4f576000816000905550600101610d37565b5090565b90565b600081359050610d6581611443565b92915050565b600082601f830112610d7c57600080fd5b8135610d8f610d8a82611322565b6112f5565b91508082526020830160208301858383011115610dab57600080fd5b610db68382846113f0565b50505092915050565b600081359050610dce8161145a565b92915050565b600060208284031215610de657600080fd5b6000610df484828501610d56565b91505092915050565b60008060008060008060c08789031215610e1657600080fd5b6000610e2489828a01610d56565b965050602087013567ffffffffffffffff811115610e4157600080fd5b610e4d89828a01610d6b565b955050604087013567ffffffffffffffff811115610e6a57600080fd5b610e7689828a01610d6b565b945050606087013567ffffffffffffffff811115610e9357600080fd5b610e9f89828a01610d6b565b9350506080610eb089828a01610dbf565b92505060a0610ec189828a01610dbf565b9150509295509295509295565b600060208284031215610ee057600080fd5b6000610eee84828501610dbf565b91505092915050565b600080600080600080600060e0888a031215610f1257600080fd5b6000610f208a828b01610dbf565b9750506020610f318a828b01610d56565b965050604088013567ffffffffffffffff811115610f4e57600080fd5b610f5a8a828b01610d6b565b9550506060610f6b8a828b01610dbf565b945050608088013567ffffffffffffffff811115610f8857600080fd5b610f948a828b01610d6b565b93505060a088013567ffffffffffffffff811115610fb157600080fd5b610fbd8a828b01610d6b565b92505060c0610fce8a828b01610dbf565b91505092959891949750929550565b6000610fe983836110f6565b905092915050565b610ffa816113b4565b82525050565b611009816113b4565b82525050565b600061101a8261135e565b6110248185611381565b9350836020820285016110368561134e565b8060005b8581101561107257848403895281516110538582610fdd565b945061105e83611374565b925060208a0199505060018101905061103a565b50829750879550505050505092915050565b600061108f82611369565b6110998185611392565b93506110a98185602086016113ff565b6110b281611432565b840191505092915050565b60006110c882611369565b6110d281856113a3565b93506110e28185602086016113ff565b6110eb81611432565b840191505092915050565b600060e08301600083015161110e60008601826111a0565b5060208301516111216020860182610ff1565b50604083015184820360408601526111398282611084565b915050606083015161114e60608601826111a0565b50608083015184820360808601526111668282611084565b91505060a083015184820360a08601526111808282611084565b91505060c083015161119560c08601826111a0565b508091505092915050565b6111a9816113e6565b82525050565b6111b8816113e6565b82525050565b600060c0820190506111d36000830189611000565b81810360208301526111e581886110bd565b905081810360408301526111f981876110bd565b9050818103606083015261120d81866110bd565b905061121c60808301856111af565b61122960a08301846111af565b979650505050505050565b6000602082019050818103600083015261124e818461100f565b905092915050565b600060208201905061126b60008301846111af565b92915050565b600060e082019050611286600083018a6111af565b6112936020830189611000565b81810360408301526112a581886110bd565b90506112b460608301876111af565b81810360808301526112c681866110bd565b905081810360a08301526112da81856110bd565b90506112e960c08301846111af565b98975050505050505050565b6000604051905081810181811067ffffffffffffffff8211171561131857600080fd5b8060405250919050565b600067ffffffffffffffff82111561133957600080fd5b601f19601f8301169050602081019050919050565b6000819050602082019050919050565b600081519050919050565b600081519050919050565b6000602082019050919050565b600082825260208201905092915050565b600082825260208201905092915050565b600082825260208201905092915050565b60006113bf826113c6565b9050919050565b600073ffffffffffffffffffffffffffffffffffffffff82169050919050565b6000819050919050565b82818337600083830152505050565b60005b8381101561141d578082015181840152602081019050611402565b8381111561142c576000848401525b50505050565b6000601f19601f8301169050919050565b61144c816113b4565b811461145757600080fd5b50565b611463816113e6565b811461146e57600080fd5b5056fea365627a7a72315820c126df2ce40ea650e05ad2f31b254835328da2dfa1f02f7b37b7b26920f252576c6578706572696d656e74616cf564736f6c63430005100040",
  "source": "pragma solidity ^0.5.16;\r\npragma experimental ABIEncoderV2;\r\n\r\ncontract PatientRecords {\r\n    struct Patient {\r\n        address account_address;\r\n        string username;\r\n        string name;\r\n        string gender;\r\n        uint256 dateOfBirth;\r\n        uint256 created_at;\r\n    }\r\n    Patient[] public patients;\r\n\r\n    function addPatient(\r\n        address _account_address,\r\n        string memory _username,\r\n        string memory _name,\r\n        string memory _gender,\r\n        uint256 _dateOfBirth,\r\n        uint256 _created_at\r\n    ) public {\r\n        patients.push(Patient({ account_address : _account_address,\r\n        name : _name,\r\n        username : _username,\r\n        gender : _gender,\r\n        dateOfBirth : _dateOfBirth,\r\n        created_at : _created_at}));\r\n        \r\n    }\r\n\r\n    struct Record {\r\n        uint256 id;\r\n        address user_address;\r\n        string title;\r\n        uint256 date;\r\n        string filename;\r\n        string file;\r\n        uint256 created_at;\r\n    } \r\n    Record[] public records;\r\n    \r\n    function addRecord(\r\n        uint256 _id,\r\n        address _user_address,\r\n        string memory _title,\r\n        uint256 _date,\r\n        string memory _filename,\r\n        string memory _file,\r\n        uint256 _created_at\r\n    ) public {\r\n    \r\n    records.push(Record({\r\n            id: _id,\r\n            user_address: _user_address,\r\n            title: _title,\r\n            date: _date,\r\n            filename: _filename,\r\n            file: _file,\r\n            created_at: _created_at\r\n    }));\r\n    }\r\nfunction getCount() public view returns(uint count) {\r\n    return records.length;\r\n}\r\n    function getAllRecordsForAddress(address user_address) public view returns (Record[] memory) {\r\n        uint i;\r\n        uint count = 0;\r\n        for (i = 0; i < getCount(); i++) {\r\n            if (records[i].user_address == user_address) {\r\n                count++;\r\n            }\r\n        }\r\n\r\n        Record[] memory userRecords = new Record[](count);\r\n        count = 0;\r\n        for (i = 0; i < getCount(); i++) {\r\n            if (records[i].user_address == user_address) {\r\n                userRecords[count] = records[i];\r\n                count++;\r\n            }\r\n        }\r\n        return userRecords;\r\n    }\r\n    \r\n    \r\n}\r\n",
  "sourcePath": "C:\\Users\\vikra\\Desktop\\BE-Project\\contract\\truffle\\contracts\\Patient.sol",
  "compiler": {
    "name": "solc",
    "version": "0.5.16+commit.9c3226ce.Emscripten.clang"
  },
  "schemaVersion": "3.4.14",
  "updatedAt": "2023-11-16T14:19:48.128Z",
  "networkType": "ethereum",
  "devdoc": {
    "methods": {}
  },
  "userdoc": {
    "methods": {}
  }
}