{
  "contractName": "PatientRecords",
  "abi": [
    {
      "constant": true,
      "inputs": [
        {
          "internalType": "address",
          "name": "",
          "type": "address"
        }
      ],
      "name": "patients",
      "outputs": [
        {
          "internalType": "string",
          "name": "name",
          "type": "string"
        },
        {
          "internalType": "uint256",
          "name": "dateOfBirth",
          "type": "uint256"
        },
        {
          "internalType": "uint256",
          "name": "aadharNo",
          "type": "uint256"
        },
        {
          "internalType": "string",
          "name": "gender",
          "type": "string"
        },
        {
          "internalType": "string",
          "name": "insuranceId",
          "type": "string"
        }
      ],
      "payable": false,
      "stateMutability": "view",
      "type": "function"
    },
    {
      "constant": false,
      "inputs": [
        {
          "internalType": "string",
          "name": "_name",
          "type": "string"
        },
        {
          "internalType": "uint256",
          "name": "_dateOfBirth",
          "type": "uint256"
        },
        {
          "internalType": "uint256",
          "name": "_aadharNo",
          "type": "uint256"
        },
        {
          "internalType": "string",
          "name": "_gender",
          "type": "string"
        },
        {
          "internalType": "string",
          "name": "_insuranceId",
          "type": "string"
        }
      ],
      "name": "addPatient",
      "outputs": [],
      "payable": false,
      "stateMutability": "nonpayable",
      "type": "function"
    },
    {
      "constant": false,
      "inputs": [
        {
          "internalType": "uint256",
          "name": "_age",
          "type": "uint256"
        },
        {
          "internalType": "uint256",
          "name": "_dateOfVisit",
          "type": "uint256"
        },
        {
          "internalType": "string",
          "name": "_diagnosis",
          "type": "string"
        },
        {
          "internalType": "string",
          "name": "_prescription",
          "type": "string"
        },
        {
          "internalType": "string",
          "name": "testname",
          "type": "string"
        },
        {
          "internalType": "string",
          "name": "ipfsid",
          "type": "string"
        },
        {
          "internalType": "uint256",
          "name": "_fees",
          "type": "uint256"
        },
        {
          "internalType": "uint256",
          "name": "_followUp",
          "type": "uint256"
        },
        {
          "internalType": "uint256",
          "name": "_bloodPressure",
          "type": "uint256"
        },
        {
          "internalType": "uint256",
          "name": "_weight",
          "type": "uint256"
        }
      ],
      "name": "addRecord",
      "outputs": [],
      "payable": false,
      "stateMutability": "nonpayable",
      "type": "function"
    }
  ],
  "bytecode": "0x608060405234801561001057600080fd5b50610cbe806100206000396000f3fe608060405234801561001057600080fd5b50600436106100415760003560e01c80630869cfbc1461004657806394b4fb6a146101e9578063dbbee2cb146103e6575b600080fd5b6100886004803603602081101561005c57600080fd5b81019080803573ffffffffffffffffffffffffffffffffffffffff1690602001909291905050506106a3565b60405180806020018681526020018581526020018060200180602001848103845289818151815260200191508051906020019080838360005b838110156100dc5780820151818401526020810190506100c1565b50505050905090810190601f1680156101095780820380516001836020036101000a031916815260200191505b50848103835286818151815260200191508051906020019080838360005b83811015610142578082015181840152602081019050610127565b50505050905090810190601f16801561016f5780820380516001836020036101000a031916815260200191505b50848103825285818151815260200191508051906020019080838360005b838110156101a857808201518184015260208101905061018d565b50505050905090810190601f1680156101d55780820380516001836020036101000a031916815260200191505b509850505050505050505060405180910390f35b6103e4600480360360a08110156101ff57600080fd5b810190808035906020019064010000000081111561021c57600080fd5b82018360208201111561022e57600080fd5b8035906020019184600183028401116401000000008311171561025057600080fd5b91908080601f016020809104026020016040519081016040528093929190818152602001838380828437600081840152601f19601f8201169050808301925050505050505091929192908035906020019092919080359060200190929190803590602001906401000000008111156102c757600080fd5b8201836020820111156102d957600080fd5b803590602001918460018302840111640100000000831117156102fb57600080fd5b91908080601f016020809104026020016040519081016040528093929190818152602001838380828437600081840152601f19601f8201169050808301925050505050505091929192908035906020019064010000000081111561035e57600080fd5b82018360208201111561037057600080fd5b8035906020019184600183028401116401000000008311171561039257600080fd5b91908080601f016020809104026020016040519081016040528093929190818152602001838380828437600081840152601f19601f8201169050808301925050505050505091929192905050506108a1565b005b6106a160048036036101408110156103fd57600080fd5b8101908080359060200190929190803590602001909291908035906020019064010000000081111561042e57600080fd5b82018360208201111561044057600080fd5b8035906020019184600183028401116401000000008311171561046257600080fd5b91908080601f016020809104026020016040519081016040528093929190818152602001838380828437600081840152601f19601f820116905080830192505050505050509192919290803590602001906401000000008111156104c557600080fd5b8201836020820111156104d757600080fd5b803590602001918460018302840111640100000000831117156104f957600080fd5b91908080601f016020809104026020016040519081016040528093929190818152602001838380828437600081840152601f19601f8201169050808301925050505050505091929192908035906020019064010000000081111561055c57600080fd5b82018360208201111561056e57600080fd5b8035906020019184600183028401116401000000008311171561059057600080fd5b91908080601f016020809104026020016040519081016040528093929190818152602001838380828437600081840152601f19601f820116905080830192505050505050509192919290803590602001906401000000008111156105f357600080fd5b82018360208201111561060557600080fd5b8035906020019184600183028401116401000000008311171561062757600080fd5b91908080601f016020809104026020016040519081016040528093929190818152602001838380828437600081840152601f19601f82011690508083019250505050505050919291929080359060200190929190803590602001909291908035906020019092919080359060200190929190505050610948565b005b6000602052806000526040600020600091509050806000018054600181600116156101000203166002900480601f01602080910402602001604051908101604052809291908181526020018280546001816001161561010002031660029004801561074f5780601f106107245761010080835404028352916020019161074f565b820191906000526020600020905b81548152906001019060200180831161073257829003601f168201915b505050505090806001015490806002015490806003018054600181600116156101000203166002900480601f0160208091040260200160405190810160405280929190818152602001828054600181600116156101000203166002900480156107f95780601f106107ce576101008083540402835291602001916107f9565b820191906000526020600020905b8154815290600101906020018083116107dc57829003601f168201915b505050505090806004018054600181600116156101000203166002900480601f0160208091040260200160405190810160405280929190818152602001828054600181600116156101000203166002900480156108975780601f1061086c57610100808354040283529160200191610897565b820191906000526020600020905b81548152906001019060200180831161087a57829003601f168201915b5050505050905085565b60008060003373ffffffffffffffffffffffffffffffffffffffff1673ffffffffffffffffffffffffffffffffffffffff1681526020019081526020016000209050858160000190805190602001906108fb929190610af8565b5084816001018190555083816002018190555082816003019080519060200190610926929190610af8565b508181600401908051906020019061093f929190610af8565b50505050505050565b60008060003373ffffffffffffffffffffffffffffffffffffffff1673ffffffffffffffffffffffffffffffffffffffff1681526020019081526020016000209050610992610b78565b8b8160000181815250508a8160200181815250508981604001819052508881606001819052508781608001516000018190525086816080015160200181905250858160a0018181525050848160c0018181525050838160e0018181525050828161010001818152505081600501819080600181540180825580915050906001820390600052602060002090600a02016000909192909190915060008201518160000155602082015181600101556040820151816002019080519060200190610a5b929190610bca565b506060820151816003019080519060200190610a78929190610bca565b506080820151816004016000820151816000019080519060200190610a9e929190610bca565b506020820151816001019080519060200190610abb929190610bca565b50505060a0820151816006015560c0820151816007015560e082015181600801556101008201518160090155505050505050505050505050505050565b828054600181600116156101000203166002900490600052602060002090601f016020900481019282601f10610b3957805160ff1916838001178555610b67565b82800160010185558215610b67579182015b82811115610b66578251825591602001919060010190610b4b565b5b509050610b749190610c4a565b5090565b60405180610120016040528060008152602001600081526020016060815260200160608152602001610ba8610c6f565b8152602001600081526020016000815260200160008152602001600081525090565b828054600181600116156101000203166002900490600052602060002090601f016020900481019282601f10610c0b57805160ff1916838001178555610c39565b82800160010185558215610c39579182015b82811115610c38578251825591602001919060010190610c1d565b5b509050610c469190610c4a565b5090565b610c6c91905b80821115610c68576000816000905550600101610c50565b5090565b90565b60405180604001604052806060815260200160608152509056fea265627a7a723158201c6a6fe40bc3b5177262dc2911b09f0828275138576ef32e83f7b2a99f341ba964736f6c63430005100032",
  "source": "pragma solidity ^0.5.16;\r\n\r\ncontract PatientRecords {\r\n    struct Patient {\r\n        string name;\r\n        uint256 dateOfBirth;\r\n        uint256 aadharNo;\r\n        string gender;\r\n        string insuranceId;\r\n        Record[] records;\r\n        mapping(uint256 => TestReport[]) recordTestReports;\r\n    }\r\n\r\n    struct Record {\r\n        uint256 age;\r\n        uint256 dateOfVisit;\r\n        string diagnosis;\r\n        string prescription;\r\n        // string[] testsAdvised;\r\n        TestReport test;\r\n        uint256 fees;\r\n        uint256 followUp;\r\n        uint256 bloodPressure;\r\n        uint256 weight;\r\n    }\r\n\r\n    struct TestReport {\r\n        string testName;\r\n        string ipfsCID;\r\n    }\r\n\r\n    mapping(address => Patient) public patients;\r\n\r\n    function addPatient(\r\n        string memory _name,\r\n        uint256 _dateOfBirth,\r\n        uint256 _aadharNo,\r\n        string memory _gender,\r\n        string memory _insuranceId\r\n    ) public {\r\n        Patient storage patient = patients[msg.sender];\r\n        patient.name = _name;\r\n        patient.dateOfBirth = _dateOfBirth;\r\n        patient.aadharNo = _aadharNo;\r\n        patient.gender = _gender;\r\n        patient.insuranceId = _insuranceId;\r\n    }\r\n\r\n    function addRecord(\r\n        uint256 _age,\r\n        uint256 _dateOfVisit,\r\n        string memory _diagnosis,\r\n        string memory _prescription,\r\n        // string[] memory _testsAdvised,\r\n        // string[] memory _testNames,\r\n        // string[] memory _ipfsCIDs,\r\n        string memory testname,\r\n        string memory ipfsid,\r\n        uint256 _fees,\r\n        uint256 _followUp,\r\n        uint256 _bloodPressure,\r\n        uint256 _weight\r\n    ) public {\r\n        Patient storage patient = patients[msg.sender];\r\n        Record memory record;\r\n        // TestReport memory testreport;\r\n        record.age = _age;\r\n        record.dateOfVisit = _dateOfVisit;\r\n        record.diagnosis = _diagnosis;\r\n        record.prescription = _prescription;\r\n        record.test.testName = testname;\r\n        record.test.ipfsCID = ipfsid;\r\n        // record.testsAdvised = _testsAdvised;\r\n        record.fees = _fees;\r\n        record.followUp = _followUp;\r\n        record.bloodPressure = _bloodPressure;\r\n        record.weight = _weight;\r\n\r\n        patient.records.push(record);\r\n\r\n        // TestReport[] storage testReports = patient.recordTestReports[patient.records.length - 1];\r\n        \r\n        // require(\r\n        //     _testNames.length == _ipfsCIDs.length,\r\n        //     \"Length mismatch between test names and IPFS CIDs\"\r\n        // );\r\n        \r\n        // for (uint256 i = 0; i < _testNames.length; i++) {\r\n        //     // TestReport memory testReport;\r\n        //     testReport.testName = _testNames[i];\r\n        //     testReport.ipfsCID = _ipfsCIDs[i];\r\n        //     testReports.push(testReport);\r\n        // }\r\n    }\r\n}\r\n",
  "sourcePath": "C:\\Users\\vikra\\Desktop\\BE-Project\\contract\\truffle\\contracts\\Patient.sol",
  "compiler": {
    "name": "solc",
    "version": "0.5.16+commit.9c3226ce.Emscripten.clang"
  },
  "schemaVersion": "3.4.14",
  "updatedAt": "2023-11-11T09:03:29.895Z",
  "networkType": "ethereum",
  "devdoc": {
    "methods": {}
  },
  "userdoc": {
    "methods": {}
  }
}